{
  "contractName": "Routes",
  "abi": [
    {
      "inputs": [],
      "payable": false,
      "stateMutability": "nonpayable",
      "type": "constructor"
    },
    {
      "constant": false,
      "inputs": [
        {
          "internalType": "uint256",
          "name": "_date",
          "type": "uint256"
        },
        {
          "internalType": "string",
          "name": "_time",
          "type": "string"
        },
        {
          "internalType": "string",
          "name": "_driverName",
          "type": "string"
        },
        {
          "internalType": "string",
          "name": "_location",
          "type": "string"
        },
        {
          "internalType": "string",
          "name": "_routeBinId",
          "type": "string"
        }
      ],
      "name": "setRouteData",
      "outputs": [],
      "payable": true,
      "stateMutability": "payable",
      "type": "function"
    },
    {
      "constant": true,
      "inputs": [],
      "name": "getRouteData",
      "outputs": [
        {
          "components": [
            {
              "internalType": "uint256",
              "name": "id",
              "type": "uint256"
            },
            {
              "internalType": "uint256",
              "name": "date",
              "type": "uint256"
            },
            {
              "internalType": "string",
              "name": "time",
              "type": "string"
            },
            {
              "internalType": "string",
              "name": "driverName",
              "type": "string"
            },
            {
              "internalType": "string",
              "name": "location",
              "type": "string"
            },
            {
              "internalType": "string",
              "name": "routeBinId",
              "type": "string"
            }
          ],
          "internalType": "struct Routes.Route[]",
          "name": "",
          "type": "tuple[]"
        }
      ],
      "payable": false,
      "stateMutability": "view",
      "type": "function"
    }
  ],
  "bytecode": "0x60806040526000805534801561001457600080fd5b5033600160006101000a81548173ffffffffffffffffffffffffffffffffffffffff021916908373ffffffffffffffffffffffffffffffffffffffff160217905550610a5f806100656000396000f3fe6080604052600436106100295760003560e01c8063443a5f751461002e57806371adfc0f14610059575b600080fd5b34801561003a57600080fd5b50610043610075565b60405161005091906108d8565b60405180910390f35b610073600480360361006e9190810190610692565b61040e565b005b6060600160009054906101000a900473ffffffffffffffffffffffffffffffffffffffff1673ffffffffffffffffffffffffffffffffffffffff163373ffffffffffffffffffffffffffffffffffffffff16146100d157600080fd5b606060005460405190808252806020026020018201604052801561010f57816020015b6100fc61054e565b8152602001906001900390816100f45790505b50905060008090505b600054811015610406576000600260008381526020019081526020016000209050806040518060c00160405290816000820154815260200160018201548152602001600282018054600181600116156101000203166002900480601f0160208091040260200160405190810160405280929190818152602001828054600181600116156101000203166002900480156101f25780601f106101c7576101008083540402835291602001916101f2565b820191906000526020600020905b8154815290600101906020018083116101d557829003601f168201915b50505050508152602001600382018054600181600116156101000203166002900480601f0160208091040260200160405190810160405280929190818152602001828054600181600116156101000203166002900480156102945780601f1061026957610100808354040283529160200191610294565b820191906000526020600020905b81548152906001019060200180831161027757829003601f168201915b50505050508152602001600482018054600181600116156101000203166002900480601f0160208091040260200160405190810160405280929190818152602001828054600181600116156101000203166002900480156103365780601f1061030b57610100808354040283529160200191610336565b820191906000526020600020905b81548152906001019060200180831161031957829003601f168201915b50505050508152602001600582018054600181600116156101000203166002900480601f0160208091040260200160405190810160405280929190818152602001828054600181600116156101000203166002900480156103d85780601f106103ad576101008083540402835291602001916103d8565b820191906000526020600020905b8154815290600101906020018083116103bb57829003601f168201915b5050505050815250508383815181106103ed57fe5b6020026020010181905250508080600101915050610118565b508091505090565b600160009054906101000a900473ffffffffffffffffffffffffffffffffffffffff1673ffffffffffffffffffffffffffffffffffffffff163373ffffffffffffffffffffffffffffffffffffffff161461046857600080fd5b6040518060c001604052806000548152602001868152602001858152602001848152602001838152602001828152506002600080548152602001908152602001600020600082015181600001556020820151816001015560408201518160020190805190602001906104db929190610584565b5060608201518160030190805190602001906104f8929190610584565b506080820151816004019080519060200190610515929190610584565b5060a0820151816005019080519060200190610532929190610584565b5090505060008081548092919060010191905055505050505050565b6040518060c001604052806000815260200160008152602001606081526020016060815260200160608152602001606081525090565b828054600181600116156101000203166002900490600052602060002090601f016020900481019282601f106105c557805160ff19168380011785556105f3565b828001600101855582156105f3579182015b828111156105f25782518255916020019190600101906105d7565b5b5090506106009190610604565b5090565b61062691905b8082111561062257600081600090555060010161060a565b5090565b90565b600082601f83011261063a57600080fd5b813561064d61064882610927565b6108fa565b9150808252602083016020830185838301111561066957600080fd5b6106748382846109b2565b50505092915050565b60008135905061068c81610a05565b92915050565b600080600080600060a086880312156106aa57600080fd5b60006106b88882890161067d565b955050602086013567ffffffffffffffff8111156106d557600080fd5b6106e188828901610629565b945050604086013567ffffffffffffffff8111156106fe57600080fd5b61070a88828901610629565b935050606086013567ffffffffffffffff81111561072757600080fd5b61073388828901610629565b925050608086013567ffffffffffffffff81111561075057600080fd5b61075c88828901610629565b9150509295509295909350565b6000610775838361082b565b905092915050565b600061078882610963565b6107928185610986565b9350836020820285016107a485610953565b8060005b858110156107e057848403895281516107c18582610769565b94506107cc83610979565b925060208a019950506001810190506107a8565b50829750879550505050505092915050565b60006107fd8261096e565b6108078185610997565b93506108178185602086016109c1565b610820816109f4565b840191505092915050565b600060c08301600083015161084360008601826108c9565b50602083015161085660208601826108c9565b506040830151848203604086015261086e82826107f2565b9150506060830151848203606086015261088882826107f2565b915050608083015184820360808601526108a282826107f2565b91505060a083015184820360a08601526108bc82826107f2565b9150508091505092915050565b6108d2816109a8565b82525050565b600060208201905081810360008301526108f2818461077d565b905092915050565b6000604051905081810181811067ffffffffffffffff8211171561091d57600080fd5b8060405250919050565b600067ffffffffffffffff82111561093e57600080fd5b601f19601f8301169050602081019050919050565b6000819050602082019050919050565b600081519050919050565b600081519050919050565b6000602082019050919050565b600082825260208201905092915050565b600082825260208201905092915050565b6000819050919050565b82818337600083830152505050565b60005b838110156109df5780820151818401526020810190506109c4565b838111156109ee576000848401525b50505050565b6000601f19601f8301169050919050565b610a0e816109a8565b8114610a1957600080fd5b5056fea365627a7a72315820bc30c980cadecef07a46c50665f2aa9d0af3c68a7ac9594e7e4ea7b4d6321acc6c6578706572696d656e74616cf564736f6c63430005100040",
  "source": "// SPDX-License-Identifier: MIT\npragma solidity >=0.5.16;\npragma experimental ABIEncoderV2;\n\ncontract Routes{\n\n    uint256 internal routeId = 0;\n    address owner;\n\n    constructor() public{\n        owner = msg.sender;\n    }   \n\n    modifier _ownerOnly(){\n        require(msg.sender == owner);\n        _;\n    }\n\n    struct Route{\n        uint256 id;\n        uint256 date;\n        string time;        \n        string driverName; \n        string location;\n        string routeBinId;\n        // except hash, coordinates, kg\n    }\n\n    mapping(uint256 => Route) routes;\n\n    function setRouteData(  uint256 _date, string memory _time,\n                            string memory _driverName, string memory _location,\n                            string memory _routeBinId)\n    public _ownerOnly payable {\n        routes[routeId] = Route(routeId, _date, _time, _driverName, _location, _routeBinId);\n        routeId++;\n    }\n\n    function getRouteData() external view _ownerOnly returns (Route[] memory){\n      Route[] memory id = new Route[](routeId);\n      for (uint i = 0; i < routeId; i++) {\n          Route storage route1 = routes[i];\n          id[i] = route1;\n      }\n      return id;\n    }\n  \n\n\n   \n}",
  "sourcePath": "/home/ahadjigavriel/Desktop/AHadjigavriel/Helesi/contracts/Routes.sol",
  "compiler": {
    "name": "solc",
    "version": "0.5.16+commit.9c3226ce.Emscripten.clang"
  },
  "schemaVersion": "3.0.22",
  "updatedAt": "2022-04-05T09:41:03.552Z",
  "networkType": "ethereum",
  "devdoc": {
    "methods": {}
  },
  "userdoc": {
    "methods": {}
  }
}