{
  "contractName": "Wastes",
  "abi": [
    {
      "inputs": [],
      "payable": false,
      "stateMutability": "nonpayable",
      "type": "constructor"
    },
    {
      "constant": false,
      "inputs": [
        {
          "internalType": "uint256",
          "name": "_date",
          "type": "uint256"
        },
        {
          "internalType": "string",
          "name": "_time",
          "type": "string"
        },
        {
          "internalType": "string",
          "name": "_driverName",
          "type": "string"
        },
        {
          "internalType": "string",
          "name": "_location",
          "type": "string"
        },
        {
          "internalType": "string",
          "name": "_route",
          "type": "string"
        },
        {
          "internalType": "string",
          "name": "_binID",
          "type": "string"
        }
      ],
      "name": "setWasteData",
      "outputs": [],
      "payable": true,
      "stateMutability": "payable",
      "type": "function"
    },
    {
      "constant": true,
      "inputs": [],
      "name": "getWasteData",
      "outputs": [
        {
          "components": [
            {
              "internalType": "uint256",
              "name": "id",
              "type": "uint256"
            },
            {
              "internalType": "uint256",
              "name": "date",
              "type": "uint256"
            },
            {
              "internalType": "string",
              "name": "time",
              "type": "string"
            },
            {
              "internalType": "string",
              "name": "driverName",
              "type": "string"
            },
            {
              "internalType": "string",
              "name": "location",
              "type": "string"
            },
            {
              "internalType": "string",
              "name": "route",
              "type": "string"
            },
            {
              "internalType": "string",
              "name": "binID",
              "type": "string"
            }
          ],
          "internalType": "struct Wastes.Waste[]",
          "name": "",
          "type": "tuple[]"
        }
      ],
      "payable": false,
      "stateMutability": "view",
      "type": "function"
    }
  ],
  "bytecode": "0x60806040526000805534801561001457600080fd5b5033600160006101000a81548173ffffffffffffffffffffffffffffffffffffffff021916908373ffffffffffffffffffffffffffffffffffffffff160217905550610b70806100656000396000f3fe6080604052600436106100295760003560e01c80630ba027631461002e578063851d1c681461004a575b600080fd5b6100486004803603610043919081019061075f565b610075565b005b34801561005657600080fd5b5061005f6101d9565b60405161006c91906109e9565b60405180910390f35b600160009054906101000a900473ffffffffffffffffffffffffffffffffffffffff1673ffffffffffffffffffffffffffffffffffffffff163373ffffffffffffffffffffffffffffffffffffffff16146100cf57600080fd5b6040518060e00160405280600054815260200187815260200186815260200185815260200184815260200183815260200182815250600260008054815260200190815260200160002060008201518160000155602082015181600101556040820151816002019080519060200190610148929190610614565b506060820151816003019080519060200190610165929190610614565b506080820151816004019080519060200190610182929190610614565b5060a082015181600501908051906020019061019f929190610614565b5060c08201518160060190805190602001906101bc929190610614565b509050506000808154809291906001019190505550505050505050565b6060600160009054906101000a900473ffffffffffffffffffffffffffffffffffffffff1673ffffffffffffffffffffffffffffffffffffffff163373ffffffffffffffffffffffffffffffffffffffff161461023557600080fd5b606060005460405190808252806020026020018201604052801561027357816020015b610260610694565b8152602001906001900390816102585790505b50905060008090505b60005481101561060c576000600260008381526020019081526020016000209050806040518060e00160405290816000820154815260200160018201548152602001600282018054600181600116156101000203166002900480601f0160208091040260200160405190810160405280929190818152602001828054600181600116156101000203166002900480156103565780601f1061032b57610100808354040283529160200191610356565b820191906000526020600020905b81548152906001019060200180831161033957829003601f168201915b50505050508152602001600382018054600181600116156101000203166002900480601f0160208091040260200160405190810160405280929190818152602001828054600181600116156101000203166002900480156103f85780601f106103cd576101008083540402835291602001916103f8565b820191906000526020600020905b8154815290600101906020018083116103db57829003601f168201915b50505050508152602001600482018054600181600116156101000203166002900480601f01602080910402602001604051908101604052809291908181526020018280546001816001161561010002031660029004801561049a5780601f1061046f5761010080835404028352916020019161049a565b820191906000526020600020905b81548152906001019060200180831161047d57829003601f168201915b50505050508152602001600582018054600181600116156101000203166002900480601f01602080910402602001604051908101604052809291908181526020018280546001816001161561010002031660029004801561053c5780601f106105115761010080835404028352916020019161053c565b820191906000526020600020905b81548152906001019060200180831161051f57829003601f168201915b50505050508152602001600682018054600181600116156101000203166002900480601f0160208091040260200160405190810160405280929190818152602001828054600181600116156101000203166002900480156105de5780601f106105b3576101008083540402835291602001916105de565b820191906000526020600020905b8154815290600101906020018083116105c157829003601f168201915b5050505050815250508383815181106105f357fe5b602002602001018190525050808060010191505061027c565b508091505090565b828054600181600116156101000203166002900490600052602060002090601f016020900481019282601f1061065557805160ff1916838001178555610683565b82800160010185558215610683579182015b82811115610682578251825591602001919060010190610667565b5b50905061069091906106d1565b5090565b6040518060e00160405280600081526020016000815260200160608152602001606081526020016060815260200160608152602001606081525090565b6106f391905b808211156106ef5760008160009055506001016106d7565b5090565b90565b600082601f83011261070757600080fd5b813561071a61071582610a38565b610a0b565b9150808252602083016020830185838301111561073657600080fd5b610741838284610ac3565b50505092915050565b60008135905061075981610b16565b92915050565b60008060008060008060c0878903121561077857600080fd5b600061078689828a0161074a565b965050602087013567ffffffffffffffff8111156107a357600080fd5b6107af89828a016106f6565b955050604087013567ffffffffffffffff8111156107cc57600080fd5b6107d889828a016106f6565b945050606087013567ffffffffffffffff8111156107f557600080fd5b61080189828a016106f6565b935050608087013567ffffffffffffffff81111561081e57600080fd5b61082a89828a016106f6565b92505060a087013567ffffffffffffffff81111561084757600080fd5b61085389828a016106f6565b9150509295509295509295565b600061086c8383610922565b905092915050565b600061087f82610a74565b6108898185610a97565b93508360208202850161089b85610a64565b8060005b858110156108d757848403895281516108b88582610860565b94506108c383610a8a565b925060208a0199505060018101905061089f565b50829750879550505050505092915050565b60006108f482610a7f565b6108fe8185610aa8565b935061090e818560208601610ad2565b61091781610b05565b840191505092915050565b600060e08301600083015161093a60008601826109da565b50602083015161094d60208601826109da565b506040830151848203604086015261096582826108e9565b9150506060830151848203606086015261097f82826108e9565b9150506080830151848203608086015261099982826108e9565b91505060a083015184820360a08601526109b382826108e9565b91505060c083015184820360c08601526109cd82826108e9565b9150508091505092915050565b6109e381610ab9565b82525050565b60006020820190508181036000830152610a038184610874565b905092915050565b6000604051905081810181811067ffffffffffffffff82111715610a2e57600080fd5b8060405250919050565b600067ffffffffffffffff821115610a4f57600080fd5b601f19601f8301169050602081019050919050565b6000819050602082019050919050565b600081519050919050565b600081519050919050565b6000602082019050919050565b600082825260208201905092915050565b600082825260208201905092915050565b6000819050919050565b82818337600083830152505050565b60005b83811015610af0578082015181840152602081019050610ad5565b83811115610aff576000848401525b50505050565b6000601f19601f8301169050919050565b610b1f81610ab9565b8114610b2a57600080fd5b5056fea365627a7a723158200c3d2ff6b4049fa2593c86a22f5d2aa1f15e68d96e0b440e722f09d45f92dc3e6c6578706572696d656e74616cf564736f6c63430005100040",
  "source": "// SPDX-License-Identifier: MIT\npragma solidity >=0.5.16;\npragma experimental ABIEncoderV2;\n\ncontract Wastes {\n    uint256 internal wasteId = 0;\n    address owner;\n\n    constructor() public{\n        owner = msg.sender;\n    }   \n\n    modifier _ownerOnly(){\n        require(msg.sender == owner);\n        _;\n    }\n\n    struct Waste {\n        uint id;\n        uint date;\n        string time;\n        string driverName;\n        string location;\n        string route;\n        string binID;\n        // except -> instal_c ,  hash , quality, material, pass, coordinates, kg, wastType\n    }\n\n    mapping(uint256 => Waste) wastes;\n\n    function setWasteData(  uint256 _date, \n                            string memory _time, \n                            string memory _driverName, string memory _location, \n                            string memory _route, string memory _binID) \n    public _ownerOnly payable {\n        wastes[wasteId] = Waste(\n                        wasteId, _date, _time, \n                        _driverName, _location, \n                        _route, _binID\n        );\n        wasteId++;\n    }\n\n    function getWasteData() external view _ownerOnly returns (Waste[] memory){\n      Waste[] memory id = new Waste[](wasteId);\n      for (uint i = 0; i < wasteId; i++) {\n          Waste storage waste1 = wastes[i];\n          id[i] = waste1;\n      }\n      return id;\n    }\n\n}\n\n\n\n\n\n    \n\n",
  "sourcePath": "/home/ahadjigavriel/Desktop/AHadjigavriel/HelesiMoonBeam/contracts/Wastes.sol",
  "compiler": {
    "name": "solc",
    "version": "0.5.16+commit.9c3226ce.Emscripten.clang"
  },
  "schemaVersion": "3.0.22",
  "updatedAt": "2022-04-05T13:02:43.579Z",
  "devdoc": {
    "methods": {}
  },
  "userdoc": {
    "methods": {}
  }
}